{
  "contractName": "AthleteToken",
  "abi": [
    {
      "inputs": [],
      "stateMutability": "nonpayable",
      "type": "constructor"
    },
    {
      "anonymous": false,
      "inputs": [
        {
          "indexed": true,
          "internalType": "address",
          "name": "owner",
          "type": "address"
        },
        {
          "indexed": true,
          "internalType": "address",
          "name": "spender",
          "type": "address"
        },
        {
          "indexed": false,
          "internalType": "uint256",
          "name": "value",
          "type": "uint256"
        }
      ],
      "name": "Approval",
      "type": "event"
    },
    {
      "anonymous": false,
      "inputs": [
        {
          "indexed": true,
          "internalType": "address",
          "name": "delegator",
          "type": "address"
        },
        {
          "indexed": true,
          "internalType": "address",
          "name": "fromDelegate",
          "type": "address"
        },
        {
          "indexed": true,
          "internalType": "address",
          "name": "toDelegate",
          "type": "address"
        }
      ],
      "name": "DelegateChanged",
      "type": "event"
    },
    {
      "anonymous": false,
      "inputs": [
        {
          "indexed": true,
          "internalType": "address",
          "name": "delegate",
          "type": "address"
        },
        {
          "indexed": false,
          "internalType": "uint256",
          "name": "previousBalance",
          "type": "uint256"
        },
        {
          "indexed": false,
          "internalType": "uint256",
          "name": "newBalance",
          "type": "uint256"
        }
      ],
      "name": "DelegateVotesChanged",
      "type": "event"
    },
    {
      "anonymous": false,
      "inputs": [
        {
          "indexed": true,
          "internalType": "address",
          "name": "from",
          "type": "address"
        },
        {
          "indexed": true,
          "internalType": "address",
          "name": "to",
          "type": "address"
        },
        {
          "indexed": false,
          "internalType": "uint256",
          "name": "value",
          "type": "uint256"
        }
      ],
      "name": "Transfer",
      "type": "event"
    },
    {
      "inputs": [],
      "name": "DOMAIN_SEPARATOR",
      "outputs": [
        {
          "internalType": "bytes32",
          "name": "",
          "type": "bytes32"
        }
      ],
      "stateMutability": "view",
      "type": "function",
      "constant": true
    },
    {
      "inputs": [
        {
          "internalType": "address",
          "name": "owner",
          "type": "address"
        },
        {
          "internalType": "address",
          "name": "spender",
          "type": "address"
        }
      ],
      "name": "allowance",
      "outputs": [
        {
          "internalType": "uint256",
          "name": "",
          "type": "uint256"
        }
      ],
      "stateMutability": "view",
      "type": "function",
      "constant": true
    },
    {
      "inputs": [
        {
          "internalType": "address",
          "name": "spender",
          "type": "address"
        },
        {
          "internalType": "uint256",
          "name": "amount",
          "type": "uint256"
        }
      ],
      "name": "approve",
      "outputs": [
        {
          "internalType": "bool",
          "name": "",
          "type": "bool"
        }
      ],
      "stateMutability": "nonpayable",
      "type": "function"
    },
    {
      "inputs": [],
      "name": "athletePool",
      "outputs": [
        {
          "internalType": "uint256",
          "name": "",
          "type": "uint256"
        }
      ],
      "stateMutability": "view",
      "type": "function",
      "constant": true
    },
    {
      "inputs": [
        {
          "internalType": "address",
          "name": "account",
          "type": "address"
        }
      ],
      "name": "balanceOf",
      "outputs": [
        {
          "internalType": "uint256",
          "name": "",
          "type": "uint256"
        }
      ],
      "stateMutability": "view",
      "type": "function",
      "constant": true
    },
    {
      "inputs": [
        {
          "internalType": "address",
          "name": "account",
          "type": "address"
        },
        {
          "internalType": "uint32",
          "name": "pos",
          "type": "uint32"
        }
      ],
      "name": "checkpoints",
      "outputs": [
        {
          "components": [
            {
              "internalType": "uint32",
              "name": "fromBlock",
              "type": "uint32"
            },
            {
              "internalType": "uint224",
              "name": "votes",
              "type": "uint224"
            }
          ],
          "internalType": "struct ERC20Votes.Checkpoint",
          "name": "",
          "type": "tuple"
        }
      ],
      "stateMutability": "view",
      "type": "function",
      "constant": true
    },
    {
      "inputs": [
        {
          "internalType": "address",
          "name": "spender",
          "type": "address"
        },
        {
          "internalType": "uint256",
          "name": "subtractedValue",
          "type": "uint256"
        }
      ],
      "name": "decreaseAllowance",
      "outputs": [
        {
          "internalType": "bool",
          "name": "",
          "type": "bool"
        }
      ],
      "stateMutability": "nonpayable",
      "type": "function"
    },
    {
      "inputs": [
        {
          "internalType": "address",
          "name": "delegatee",
          "type": "address"
        }
      ],
      "name": "delegate",
      "outputs": [],
      "stateMutability": "nonpayable",
      "type": "function"
    },
    {
      "inputs": [
        {
          "internalType": "address",
          "name": "delegatee",
          "type": "address"
        },
        {
          "internalType": "uint256",
          "name": "nonce",
          "type": "uint256"
        },
        {
          "internalType": "uint256",
          "name": "expiry",
          "type": "uint256"
        },
        {
          "internalType": "uint8",
          "name": "v",
          "type": "uint8"
        },
        {
          "internalType": "bytes32",
          "name": "r",
          "type": "bytes32"
        },
        {
          "internalType": "bytes32",
          "name": "s",
          "type": "bytes32"
        }
      ],
      "name": "delegateBySig",
      "outputs": [],
      "stateMutability": "nonpayable",
      "type": "function"
    },
    {
      "inputs": [
        {
          "internalType": "address",
          "name": "account",
          "type": "address"
        }
      ],
      "name": "delegates",
      "outputs": [
        {
          "internalType": "address",
          "name": "",
          "type": "address"
        }
      ],
      "stateMutability": "view",
      "type": "function",
      "constant": true
    },
    {
      "inputs": [],
      "name": "difficultyPerBlock",
      "outputs": [
        {
          "internalType": "uint256",
          "name": "",
          "type": "uint256"
        }
      ],
      "stateMutability": "view",
      "type": "function",
      "constant": true
    },
    {
      "inputs": [
        {
          "internalType": "uint256",
          "name": "blockNumber",
          "type": "uint256"
        }
      ],
      "name": "getPastTotalSupply",
      "outputs": [
        {
          "internalType": "uint256",
          "name": "",
          "type": "uint256"
        }
      ],
      "stateMutability": "view",
      "type": "function",
      "constant": true
    },
    {
      "inputs": [
        {
          "internalType": "address",
          "name": "account",
          "type": "address"
        },
        {
          "internalType": "uint256",
          "name": "blockNumber",
          "type": "uint256"
        }
      ],
      "name": "getPastVotes",
      "outputs": [
        {
          "internalType": "uint256",
          "name": "",
          "type": "uint256"
        }
      ],
      "stateMutability": "view",
      "type": "function",
      "constant": true
    },
    {
      "inputs": [
        {
          "internalType": "address",
          "name": "account",
          "type": "address"
        }
      ],
      "name": "getVotes",
      "outputs": [
        {
          "internalType": "uint256",
          "name": "",
          "type": "uint256"
        }
      ],
      "stateMutability": "view",
      "type": "function",
      "constant": true
    },
    {
      "inputs": [
        {
          "internalType": "address",
          "name": "spender",
          "type": "address"
        },
        {
          "internalType": "uint256",
          "name": "addedValue",
          "type": "uint256"
        }
      ],
      "name": "increaseAllowance",
      "outputs": [
        {
          "internalType": "bool",
          "name": "",
          "type": "bool"
        }
      ],
      "stateMutability": "nonpayable",
      "type": "function"
    },
    {
      "inputs": [],
      "name": "initialSupply",
      "outputs": [
        {
          "internalType": "uint256",
          "name": "",
          "type": "uint256"
        }
      ],
      "stateMutability": "view",
      "type": "function",
      "constant": true
    },
    {
      "inputs": [],
      "name": "name",
      "outputs": [
        {
          "internalType": "string",
          "name": "",
          "type": "string"
        }
      ],
      "stateMutability": "view",
      "type": "function",
      "constant": true
    },
    {
      "inputs": [
        {
          "internalType": "address",
          "name": "owner",
          "type": "address"
        }
      ],
      "name": "nonces",
      "outputs": [
        {
          "internalType": "uint256",
          "name": "",
          "type": "uint256"
        }
      ],
      "stateMutability": "view",
      "type": "function",
      "constant": true
    },
    {
      "inputs": [
        {
          "internalType": "address",
          "name": "account",
          "type": "address"
        }
      ],
      "name": "numCheckpoints",
      "outputs": [
        {
          "internalType": "uint32",
          "name": "",
          "type": "uint32"
        }
      ],
      "stateMutability": "view",
      "type": "function",
      "constant": true
    },
    {
      "inputs": [
        {
          "internalType": "address",
          "name": "owner",
          "type": "address"
        },
        {
          "internalType": "address",
          "name": "spender",
          "type": "address"
        },
        {
          "internalType": "uint256",
          "name": "value",
          "type": "uint256"
        },
        {
          "internalType": "uint256",
          "name": "deadline",
          "type": "uint256"
        },
        {
          "internalType": "uint8",
          "name": "v",
          "type": "uint8"
        },
        {
          "internalType": "bytes32",
          "name": "r",
          "type": "bytes32"
        },
        {
          "internalType": "bytes32",
          "name": "s",
          "type": "bytes32"
        }
      ],
      "name": "permit",
      "outputs": [],
      "stateMutability": "nonpayable",
      "type": "function"
    },
    {
      "inputs": [
        {
          "internalType": "address",
          "name": "",
          "type": "address"
        },
        {
          "internalType": "uint256",
          "name": "",
          "type": "uint256"
        }
      ],
      "name": "stakeSubscriptions",
      "outputs": [
        {
          "internalType": "uint256",
          "name": "amount",
          "type": "uint256"
        },
        {
          "internalType": "uint256",
          "name": "blockId",
          "type": "uint256"
        }
      ],
      "stateMutability": "view",
      "type": "function",
      "constant": true
    },
    {
      "inputs": [],
      "name": "symbol",
      "outputs": [
        {
          "internalType": "string",
          "name": "",
          "type": "string"
        }
      ],
      "stateMutability": "view",
      "type": "function",
      "constant": true
    },
    {
      "inputs": [],
      "name": "tokenTotalStake",
      "outputs": [
        {
          "internalType": "uint256",
          "name": "",
          "type": "uint256"
        }
      ],
      "stateMutability": "view",
      "type": "function",
      "constant": true
    },
    {
      "inputs": [],
      "name": "totalSupply",
      "outputs": [
        {
          "internalType": "uint256",
          "name": "",
          "type": "uint256"
        }
      ],
      "stateMutability": "view",
      "type": "function",
      "constant": true
    },
    {
      "inputs": [
        {
          "internalType": "address",
          "name": "to",
          "type": "address"
        },
        {
          "internalType": "uint256",
          "name": "amount",
          "type": "uint256"
        }
      ],
      "name": "transfer",
      "outputs": [
        {
          "internalType": "bool",
          "name": "",
          "type": "bool"
        }
      ],
      "stateMutability": "nonpayable",
      "type": "function"
    },
    {
      "inputs": [
        {
          "internalType": "address",
          "name": "from",
          "type": "address"
        },
        {
          "internalType": "address",
          "name": "to",
          "type": "address"
        },
        {
          "internalType": "uint256",
          "name": "amount",
          "type": "uint256"
        }
      ],
      "name": "transferFrom",
      "outputs": [
        {
          "internalType": "bool",
          "name": "",
          "type": "bool"
        }
      ],
      "stateMutability": "nonpayable",
      "type": "function"
    },
    {
      "inputs": [],
      "name": "decimals",
      "outputs": [
        {
          "internalType": "uint8",
          "name": "",
          "type": "uint8"
        }
      ],
      "stateMutability": "view",
      "type": "function",
      "constant": true
    },
    {
      "inputs": [
        {
          "internalType": "uint256",
          "name": "_amount",
          "type": "uint256"
        }
      ],
      "name": "subscribeStake",
      "outputs": [],
      "stateMutability": "nonpayable",
      "type": "function"
    },
    {
      "inputs": [
        {
          "internalType": "uint256",
          "name": "_blockNumber",
          "type": "uint256"
        }
      ],
      "name": "unsubscribeStake",
      "outputs": [],
      "stateMutability": "nonpayable",
      "type": "function"
    },
    {
      "inputs": [
        {
          "internalType": "address",
          "name": "wallet",
          "type": "address"
        },
        {
          "internalType": "uint256",
          "name": "_blockNumber",
          "type": "uint256"
        }
      ],
      "name": "balanceStaked",
      "outputs": [
        {
          "internalType": "uint256",
          "name": "",
          "type": "uint256"
        }
      ],
      "stateMutability": "view",
      "type": "function",
      "constant": true
    }
  ],
  "bytecode": "0x61014060405267016345785d8a0000600a553480156200001e57600080fd5b506040518060400160405280600d81526020017f4174686c65746520546f6b656e00000000000000000000000000000000000000815250806040518060400160405280600181526020017f31000000000000000000000000000000000000000000000000000000000000008152506040518060400160405280600d81526020017f4174686c65746520546f6b656e000000000000000000000000000000000000008152506040518060400160405280600381526020017f4154480000000000000000000000000000000000000000000000000000000000815250816003908162000109919062000dc8565b5080600490816200011b919062000dc8565b50505060008280519060200120905060008280519060200120905060007f8b73c3c69bb8fe3d512ecc4cf759cc79239f7b179b0ffacaa9a75d522b39400f90508260e081815250508161010081815250504660a0818152505062000187818484620001eb60201b60201c565b608081815250503073ffffffffffffffffffffffffffffffffffffffff1660c08173ffffffffffffffffffffffffffffffffffffffff1681525050806101208181525050505050505050620001e533600a546200022760201b60201c565b62001308565b600083838346306040516020016200020895949392919062000f20565b6040516020818303038152906040528051906020012090509392505050565b6200023e82826200024260201b620013831760201c565b5050565b6200025982826200030060201b620014101760201c565b620002696200047860201b60201c565b7bffffffffffffffffffffffffffffffffffffffffffffffffffffffff16620002976200049c60201b60201c565b1115620002db576040517f08c379a0000000000000000000000000000000000000000000000000000000008152600401620002d29062001004565b60405180910390fd5b620002fa6009620004a660201b6200156f1783620004be60201b60201c565b50505050565b600073ffffffffffffffffffffffffffffffffffffffff168273ffffffffffffffffffffffffffffffffffffffff160362000372576040517f08c379a0000000000000000000000000000000000000000000000000000000008152600401620003699062001076565b60405180910390fd5b62000386600083836200076f60201b60201c565b80600260008282546200039a9190620010c7565b92505081905550806000808473ffffffffffffffffffffffffffffffffffffffff1673ffffffffffffffffffffffffffffffffffffffff1681526020019081526020016000206000828254620003f19190620010c7565b925050819055508173ffffffffffffffffffffffffffffffffffffffff16600073ffffffffffffffffffffffffffffffffffffffff167fddf252ad1be2c89b69c2b068fc378daa952ba7f163c4a11628f55a4df523b3ef8360405162000458919062001124565b60405180910390a362000474600083836200077460201b60201c565b5050565b60007bffffffffffffffffffffffffffffffffffffffffffffffffffffffff905090565b6000600254905090565b60008183620004b69190620010c7565b905092915050565b60008060008580549050905060008114620005335785600182620004e3919062001141565b81548110620004f757620004f66200117c565b5b9060005260206000200160000160049054906101000a90047bffffffffffffffffffffffffffffffffffffffffffffffffffffffff1662000536565b60005b7bffffffffffffffffffffffffffffffffffffffffffffffffffffffff1692506200056283858760201c565b9150600081118015620005bb5750438660018362000581919062001141565b815481106200059557620005946200117c565b5b9060005260206000200160000160009054906101000a900463ffffffff1663ffffffff16145b156200065c57620005d7826200079160201b620015851760201c565b86600183620005e7919062001141565b81548110620005fb57620005fa6200117c565b5b9060005260206000200160000160046101000a8154817bffffffffffffffffffffffffffffffffffffffffffffffffffffffff02191690837bffffffffffffffffffffffffffffffffffffffffffffffffffffffff16021790555062000766565b8560405180604001604052806200067e43620007ff60201b620015f01760201c565b63ffffffff1681526020016200069f856200079160201b620015851760201c565b7bffffffffffffffffffffffffffffffffffffffffffffffffffffffff168152509080600181540180825580915050600190039060005260206000200160009091909190915060008201518160000160006101000a81548163ffffffff021916908363ffffffff16021790555060208201518160000160046101000a8154817bffffffffffffffffffffffffffffffffffffffffffffffffffffffff02191690837bffffffffffffffffffffffffffffffffffffffffffffffffffffffff16021790555050505b50935093915050565b505050565b6200078c8383836200085560201b620016431760201c565b505050565b60007bffffffffffffffffffffffffffffffffffffffffffffffffffffffff8016821115620007f7576040517f08c379a0000000000000000000000000000000000000000000000000000000008152600401620007ee9062001221565b60405180910390fd5b819050919050565b600063ffffffff80168211156200084d576040517f08c379a00000000000000000000000000000000000000000000000000000000081526004016200084490620012b9565b60405180910390fd5b819050919050565b6200086d838383620008a560201b6200166e1760201c565b620008a06200088284620008aa60201b60201c565b6200089384620008aa60201b60201c565b836200091360201b60201c565b505050565b505050565b6000600760008373ffffffffffffffffffffffffffffffffffffffff1673ffffffffffffffffffffffffffffffffffffffff16815260200190815260200160002060009054906101000a900473ffffffffffffffffffffffffffffffffffffffff169050919050565b8173ffffffffffffffffffffffffffffffffffffffff168373ffffffffffffffffffffffffffffffffffffffff1614158015620009505750600081115b1562000b3157600073ffffffffffffffffffffffffffffffffffffffff168373ffffffffffffffffffffffffffffffffffffffff161462000a4357600080620009ea600860008773ffffffffffffffffffffffffffffffffffffffff1673ffffffffffffffffffffffffffffffffffffffff16815260200190815260200160002062000b3660201b620016731785620004be60201b60201c565b915091508473ffffffffffffffffffffffffffffffffffffffff167fdec2bacdd2f05b59de34da9b523dff8be42e5e38e818c82fdb0bae774387a724838360405162000a38929190620012db565b60405180910390a250505b600073ffffffffffffffffffffffffffffffffffffffff168273ffffffffffffffffffffffffffffffffffffffff161462000b305760008062000ad7600860008673ffffffffffffffffffffffffffffffffffffffff1673ffffffffffffffffffffffffffffffffffffffff168152602001908152602001600020620004a660201b6200156f1785620004be60201b60201c565b915091508373ffffffffffffffffffffffffffffffffffffffff167fdec2bacdd2f05b59de34da9b523dff8be42e5e38e818c82fdb0bae774387a724838360405162000b25929190620012db565b60405180910390a250505b5b505050565b6000818362000b46919062001141565b905092915050565b600081519050919050565b7f4e487b7100000000000000000000000000000000000000000000000000000000600052604160045260246000fd5b7f4e487b7100000000000000000000000000000000000000000000000000000000600052602260045260246000fd5b6000600282049050600182168062000bd057607f821691505b60208210810362000be65762000be562000b88565b5b50919050565b60008190508160005260206000209050919050565b60006020601f8301049050919050565b600082821b905092915050565b60006008830262000c507fffffffffffffffffffffffffffffffffffffffffffffffffffffffffffffffff8262000c11565b62000c5c868362000c11565b95508019841693508086168417925050509392505050565b6000819050919050565b6000819050919050565b600062000ca962000ca362000c9d8462000c74565b62000c7e565b62000c74565b9050919050565b6000819050919050565b62000cc58362000c88565b62000cdd62000cd48262000cb0565b84845462000c1e565b825550505050565b600090565b62000cf462000ce5565b62000d0181848462000cba565b505050565b5b8181101562000d295762000d1d60008262000cea565b60018101905062000d07565b5050565b601f82111562000d785762000d428162000bec565b62000d4d8462000c01565b8101602085101562000d5d578190505b62000d7562000d6c8562000c01565b83018262000d06565b50505b505050565b600082821c905092915050565b600062000d9d6000198460080262000d7d565b1980831691505092915050565b600062000db8838362000d8a565b9150826002028217905092915050565b62000dd38262000b4e565b67ffffffffffffffff81111562000def5762000dee62000b59565b5b62000dfb825462000bb7565b62000e0882828562000d2d565b600060209050601f83116001811462000e40576000841562000e2b578287015190505b62000e37858262000daa565b86555062000ea7565b601f19841662000e508662000bec565b60005b8281101562000e7a5784890151825560018201915060208501945060208101905062000e53565b8683101562000e9a578489015162000e96601f89168262000d8a565b8355505b6001600288020188555050505b505050505050565b6000819050919050565b62000ec48162000eaf565b82525050565b62000ed58162000c74565b82525050565b600073ffffffffffffffffffffffffffffffffffffffff82169050919050565b600062000f088262000edb565b9050919050565b62000f1a8162000efb565b82525050565b600060a08201905062000f37600083018862000eb9565b62000f46602083018762000eb9565b62000f55604083018662000eb9565b62000f64606083018562000eca565b62000f73608083018462000f0f565b9695505050505050565b600082825260208201905092915050565b7f4552433230566f7465733a20746f74616c20737570706c79207269736b73206f60008201527f766572666c6f77696e6720766f74657300000000000000000000000000000000602082015250565b600062000fec60308362000f7d565b915062000ff98262000f8e565b604082019050919050565b600060208201905081810360008301526200101f8162000fdd565b9050919050565b7f45524332303a206d696e7420746f20746865207a65726f206164647265737300600082015250565b60006200105e601f8362000f7d565b91506200106b8262001026565b602082019050919050565b6000602082019050818103600083015262001091816200104f565b9050919050565b7f4e487b7100000000000000000000000000000000000000000000000000000000600052601160045260246000fd5b6000620010d48262000c74565b9150620010e18362000c74565b9250827fffffffffffffffffffffffffffffffffffffffffffffffffffffffffffffffff0382111562001119576200111862001098565b5b828201905092915050565b60006020820190506200113b600083018462000eca565b92915050565b60006200114e8262000c74565b91506200115b8362000c74565b92508282101562001171576200117062001098565b5b828203905092915050565b7f4e487b7100000000000000000000000000000000000000000000000000000000600052603260045260246000fd5b7f53616665436173743a2076616c756520646f65736e27742066697420696e203260008201527f3234206269747300000000000000000000000000000000000000000000000000602082015250565b60006200120960278362000f7d565b91506200121682620011ab565b604082019050919050565b600060208201905081810360008301526200123c81620011fa565b9050919050565b7f53616665436173743a2076616c756520646f65736e27742066697420696e203360008201527f3220626974730000000000000000000000000000000000000000000000000000602082015250565b6000620012a160268362000f7d565b9150620012ae8262001243565b604082019050919050565b60006020820190508181036000830152620012d48162001292565b9050919050565b6000604082019050620012f2600083018562000eca565b62001301602083018462000eca565b9392505050565b60805160a05160c05160e0516101005161012051614133620013586000396000611c1301526000611c5501526000611c3401526000611b6901526000611bbf01526000611be801526141336000f3fe608060405234801561001057600080fd5b50600436106101da5760003560e01c8063735f366c11610104578063a9059cbb116100a2578063dd62ed3e11610071578063dd62ed3e146105cc578063e2fccf78146105fc578063f1127ed81461061a578063f68a82171461064a576101da565b8063a9059cbb14610548578063a9f78ca514610578578063c3cda52014610594578063d505accf146105b0576101da565b80638e539e8c116100de5780638e539e8c1461049a57806395d89b41146104ca5780639ab24eb0146104e8578063a457c2d714610518576101da565b8063735f366c1461041b5780637ecebe001461044c5780638859c6c91461047c576101da565b8063395093511161017c5780635c19a95c1161014b5780635c19a95c146103835780636f16b4ec1461039f5780636fcfff45146103bb57806370a08231146103eb576101da565b806339509351146102d55780633a46b1a8146103055780633a58e7e014610335578063587cde1e14610353576101da565b806323b872dd116101b857806323b872dd1461024b578063313ce5671461027b5780633644e51514610299578063378dc3dc146102b7576101da565b806306fdde03146101df578063095ea7b3146101fd57806318160ddd1461022d575b600080fd5b6101e761067a565b6040516101f49190612a68565b60405180910390f35b61021760048036038101906102129190612b23565b61070c565b6040516102249190612b7e565b60405180910390f35b61023561072f565b6040516102429190612ba8565b60405180910390f35b61026560048036038101906102609190612bc3565b610739565b6040516102729190612b7e565b60405180910390f35b610283610768565b6040516102909190612c32565b60405180910390f35b6102a1610771565b6040516102ae9190612c66565b60405180910390f35b6102bf610780565b6040516102cc9190612ba8565b60405180910390f35b6102ef60048036038101906102ea9190612b23565b610786565b6040516102fc9190612b7e565b60405180910390f35b61031f600480360381019061031a9190612b23565b6107bd565b60405161032c9190612ba8565b60405180910390f35b61033d610851565b60405161034a9190612ba8565b60405180910390f35b61036d60048036038101906103689190612c81565b610857565b60405161037a9190612cbd565b60405180910390f35b61039d60048036038101906103989190612c81565b6108c0565b005b6103b960048036038101906103b49190612cd8565b6108d4565b005b6103d560048036038101906103d09190612c81565b610a2a565b6040516103e29190612d24565b60405180910390f35b61040560048036038101906104009190612c81565b610a7e565b6040516104129190612ba8565b60405180910390f35b61043560048036038101906104309190612b23565b610ac6565b604051610443929190612d3f565b60405180910390f35b61046660048036038101906104619190612c81565b610af7565b6040516104739190612ba8565b60405180910390f35b610484610b47565b6040516104919190612ba8565b60405180910390f35b6104b460048036038101906104af9190612cd8565b610b4d565b6040516104c19190612ba8565b60405180910390f35b6104d2610ba3565b6040516104df9190612a68565b60405180910390f35b61050260048036038101906104fd9190612c81565b610c35565b60405161050f9190612ba8565b60405180910390f35b610532600480360381019061052d9190612b23565b610d46565b60405161053f9190612b7e565b60405180910390f35b610562600480360381019061055d9190612b23565b610dbd565b60405161056f9190612b7e565b60405180910390f35b610592600480360381019061058d9190612cd8565b610de0565b005b6105ae60048036038101906105a99190612dc0565b610f42565b005b6105ca60048036038101906105c59190612e4d565b611046565b005b6105e660048036038101906105e19190612eef565b611188565b6040516105f39190612ba8565b60405180910390f35b61060461120f565b6040516106119190612ba8565b60405180910390f35b610634600480360381019061062f9190612f5b565b611215565b6040516106419190613010565b60405180910390f35b610664600480360381019061065f9190612b23565b611325565b6040516106719190612ba8565b60405180910390f35b6060600380546106899061305a565b80601f01602080910402602001604051908101604052809291908181526020018280546106b59061305a565b80156107025780601f106106d757610100808354040283529160200191610702565b820191906000526020600020905b8154815290600101906020018083116106e557829003601f168201915b5050505050905090565b600080610717611689565b9050610724818585611691565b600191505092915050565b6000600254905090565b600080610744611689565b905061075185828561185a565b61075c8585856118e6565b60019150509392505050565b60006008905090565b600061077b611b65565b905090565b600a5481565b600080610791611689565b90506107b28185856107a38589611188565b6107ad91906130ba565b611691565b600191505092915050565b6000438210610801576040517f08c379a00000000000000000000000000000000000000000000000000000000081526004016107f89061315c565b60405180910390fd5b610849600860008573ffffffffffffffffffffffffffffffffffffffff1673ffffffffffffffffffffffffffffffffffffffff16815260200190815260200160002083611c7f565b905092915050565b600b5481565b6000600760008373ffffffffffffffffffffffffffffffffffffffff1673ffffffffffffffffffffffffffffffffffffffff16815260200190815260200160002060009054906101000a900473ffffffffffffffffffffffffffffffffffffffff169050919050565b6108d16108cb611689565b82611d8b565b50565b806108de33610a7e565b10156108e957600080fd5b6402540be40081116108fa57600080fd5b6000600e60003373ffffffffffffffffffffffffffffffffffffffff1673ffffffffffffffffffffffffffffffffffffffff1681526020019081526020016000206000438152602001908152602001600020600001541461095a57600080fd5b6109643382611ea5565b80600b600082825461097691906130ba565b92505081905550604051806040016040528082815260200143815250600e60003373ffffffffffffffffffffffffffffffffffffffff1673ffffffffffffffffffffffffffffffffffffffff168152602001908152602001600020600043815260200190815260200160002060008201518160000155602082015181600101559050506064600a600b54610a0a919061317c565b600a54610a1791906130ba565b610a219190613205565b600c8190555050565b6000610a77600860008473ffffffffffffffffffffffffffffffffffffffff1673ffffffffffffffffffffffffffffffffffffffff168152602001908152602001600020805490506115f0565b9050919050565b60008060008373ffffffffffffffffffffffffffffffffffffffff1673ffffffffffffffffffffffffffffffffffffffff168152602001908152602001600020549050919050565b600e602052816000526040600020602052806000526040600020600091509150508060000154908060010154905082565b6000610b40600560008473ffffffffffffffffffffffffffffffffffffffff1673ffffffffffffffffffffffffffffffffffffffff168152602001908152602001600020611eb3565b9050919050565b600d5481565b6000438210610b91576040517f08c379a0000000000000000000000000000000000000000000000000000000008152600401610b889061315c565b60405180910390fd5b610b9c600983611c7f565b9050919050565b606060048054610bb29061305a565b80601f0160208091040260200160405190810160405280929190818152602001828054610bde9061305a565b8015610c2b5780601f10610c0057610100808354040283529160200191610c2b565b820191906000526020600020905b815481529060010190602001808311610c0e57829003601f168201915b5050505050905090565b600080600860008473ffffffffffffffffffffffffffffffffffffffff1673ffffffffffffffffffffffffffffffffffffffff16815260200190815260200160002080549050905060008114610d1d57600860008473ffffffffffffffffffffffffffffffffffffffff1673ffffffffffffffffffffffffffffffffffffffff168152602001908152602001600020600182610cd19190613236565b81548110610ce257610ce161326a565b5b9060005260206000200160000160049054906101000a90047bffffffffffffffffffffffffffffffffffffffffffffffffffffffff16610d20565b60005b7bffffffffffffffffffffffffffffffffffffffffffffffffffffffff16915050919050565b600080610d51611689565b90506000610d5f8286611188565b905083811015610da4576040517f08c379a0000000000000000000000000000000000000000000000000000000008152600401610d9b9061330b565b60405180910390fd5b610db18286868403611691565b60019250505092915050565b600080610dc8611689565b9050610dd58185856118e6565b600191505092915050565b6000600e60003373ffffffffffffffffffffffffffffffffffffffff1673ffffffffffffffffffffffffffffffffffffffff16815260200190815260200160002060008381526020019081526020016000206000015490506000610e42610768565b600a610e4e919061345e565b8343610e5a9190613236565b610e64919061317c565b905060008211610e7357600080fd5b824311610e7f57600080fd5b81600b6000828254610e919190613236565b92505081905550600081600c54610ea89190613205565b83610eb39190613205565b905080600d6000828254610ec791906130ba565b92505081905550610ee3338285610ede91906130ba565b611ec1565b6000600e60003373ffffffffffffffffffffffffffffffffffffffff1673ffffffffffffffffffffffffffffffffffffffff16815260200190815260200160002060008681526020019081526020016000206000018190555050505050565b83421115610f85576040517f08c379a0000000000000000000000000000000000000000000000000000000008152600401610f7c906134f5565b60405180910390fd5b6000610fe7610fdf7fe48329057bfd03d55e49b547132e39cffd9c1820ad7b9d4c5307691425d15adf898989604051602001610fc49493929190613515565b60405160208183030381529060405280519060200120611ecf565b858585611ee9565b9050610ff281611f14565b8614611033576040517f08c379a000000000000000000000000000000000000000000000000000000000815260040161102a906135a6565b60405180910390fd5b61103d8188611d8b565b50505050505050565b83421115611089576040517f08c379a000000000000000000000000000000000000000000000000000000000815260040161108090613612565b60405180910390fd5b60007f6e71edae12b1b97f4d1f60370fef10105fa2faae0126114a169c64845d6126c98888886110b88c611f14565b896040516020016110ce96959493929190613632565b60405160208183030381529060405280519060200120905060006110f182611ecf565b9050600061110182878787611ee9565b90508973ffffffffffffffffffffffffffffffffffffffff168173ffffffffffffffffffffffffffffffffffffffff1614611171576040517f08c379a0000000000000000000000000000000000000000000000000000000008152600401611168906136df565b60405180910390fd5b61117c8a8a8a611691565b50505050505050505050565b6000600160008473ffffffffffffffffffffffffffffffffffffffff1673ffffffffffffffffffffffffffffffffffffffff16815260200190815260200160002060008373ffffffffffffffffffffffffffffffffffffffff1673ffffffffffffffffffffffffffffffffffffffff16815260200190815260200160002054905092915050565b600c5481565b61121d612991565b600860008473ffffffffffffffffffffffffffffffffffffffff1673ffffffffffffffffffffffffffffffffffffffff1681526020019081526020016000208263ffffffff16815481106112745761127361326a565b5b906000526020600020016040518060400160405290816000820160009054906101000a900463ffffffff1663ffffffff1663ffffffff1681526020016000820160049054906101000a90047bffffffffffffffffffffffffffffffffffffffffffffffffffffffff167bffffffffffffffffffffffffffffffffffffffffffffffffffffffff167bffffffffffffffffffffffffffffffffffffffffffffffffffffffff1681525050905092915050565b6000600e60008473ffffffffffffffffffffffffffffffffffffffff1673ffffffffffffffffffffffffffffffffffffffff168152602001908152602001600020600083815260200190815260200160002060000154905092915050565b61138d8282611410565b611395611f72565b7bffffffffffffffffffffffffffffffffffffffffffffffffffffffff166113bb61072f565b11156113fc576040517f08c379a00000000000000000000000000000000000000000000000000000000081526004016113f390613771565b60405180910390fd5b61140a600961156f83611f96565b50505050565b600073ffffffffffffffffffffffffffffffffffffffff168273ffffffffffffffffffffffffffffffffffffffff160361147f576040517f08c379a0000000000000000000000000000000000000000000000000000000008152600401611476906137dd565b60405180910390fd5b61148b6000838361220e565b806002600082825461149d91906130ba565b92505081905550806000808473ffffffffffffffffffffffffffffffffffffffff1673ffffffffffffffffffffffffffffffffffffffff16815260200190815260200160002060008282546114f291906130ba565b925050819055508173ffffffffffffffffffffffffffffffffffffffff16600073ffffffffffffffffffffffffffffffffffffffff167fddf252ad1be2c89b69c2b068fc378daa952ba7f163c4a11628f55a4df523b3ef836040516115579190612ba8565b60405180910390a361156b60008383612213565b5050565b6000818361157d91906130ba565b905092915050565b60007bffffffffffffffffffffffffffffffffffffffffffffffffffffffff80168211156115e8576040517f08c379a00000000000000000000000000000000000000000000000000000000081526004016115df9061386f565b60405180910390fd5b819050919050565b600063ffffffff801682111561163b576040517f08c379a000000000000000000000000000000000000000000000000000000000815260040161163290613901565b60405180910390fd5b819050919050565b61164e83838361166e565b61166961165a84610857565b61166384610857565b83612223565b505050565b505050565b600081836116819190613236565b905092915050565b600033905090565b600073ffffffffffffffffffffffffffffffffffffffff168373ffffffffffffffffffffffffffffffffffffffff1603611700576040517f08c379a00000000000000000000000000000000000000000000000000000000081526004016116f790613993565b60405180910390fd5b600073ffffffffffffffffffffffffffffffffffffffff168273ffffffffffffffffffffffffffffffffffffffff160361176f576040517f08c379a000000000000000000000000000000000000000000000000000000000815260040161176690613a25565b60405180910390fd5b80600160008573ffffffffffffffffffffffffffffffffffffffff1673ffffffffffffffffffffffffffffffffffffffff16815260200190815260200160002060008473ffffffffffffffffffffffffffffffffffffffff1673ffffffffffffffffffffffffffffffffffffffff168152602001908152602001600020819055508173ffffffffffffffffffffffffffffffffffffffff168373ffffffffffffffffffffffffffffffffffffffff167f8c5be1e5ebec7d5bd14f71427d1e84f3dd0314c0f7b2291e5b200ac8c7c3b9258360405161184d9190612ba8565b60405180910390a3505050565b60006118668484611188565b90507fffffffffffffffffffffffffffffffffffffffffffffffffffffffffffffffff81146118e057818110156118d2576040517f08c379a00000000000000000000000000000000000000000000000000000000081526004016118c990613a91565b60405180910390fd5b6118df8484848403611691565b5b50505050565b600073ffffffffffffffffffffffffffffffffffffffff168373ffffffffffffffffffffffffffffffffffffffff1603611955576040517f08c379a000000000000000000000000000000000000000000000000000000000815260040161194c90613b23565b60405180910390fd5b600073ffffffffffffffffffffffffffffffffffffffff168273ffffffffffffffffffffffffffffffffffffffff16036119c4576040517f08c379a00000000000000000000000000000000000000000000000000000000081526004016119bb90613bb5565b60405180910390fd5b6119cf83838361220e565b60008060008573ffffffffffffffffffffffffffffffffffffffff1673ffffffffffffffffffffffffffffffffffffffff16815260200190815260200160002054905081811015611a55576040517f08c379a0000000000000000000000000000000000000000000000000000000008152600401611a4c90613c47565b60405180910390fd5b8181036000808673ffffffffffffffffffffffffffffffffffffffff1673ffffffffffffffffffffffffffffffffffffffff16815260200190815260200160002081905550816000808573ffffffffffffffffffffffffffffffffffffffff1673ffffffffffffffffffffffffffffffffffffffff1681526020019081526020016000206000828254611ae891906130ba565b925050819055508273ffffffffffffffffffffffffffffffffffffffff168473ffffffffffffffffffffffffffffffffffffffff167fddf252ad1be2c89b69c2b068fc378daa952ba7f163c4a11628f55a4df523b3ef84604051611b4c9190612ba8565b60405180910390a3611b5f848484612213565b50505050565b60007f000000000000000000000000000000000000000000000000000000000000000073ffffffffffffffffffffffffffffffffffffffff163073ffffffffffffffffffffffffffffffffffffffff16148015611be157507f000000000000000000000000000000000000000000000000000000000000000046145b15611c0e577f00000000000000000000000000000000000000000000000000000000000000009050611c7c565b611c797f00000000000000000000000000000000000000000000000000000000000000007f00000000000000000000000000000000000000000000000000000000000000007f000000000000000000000000000000000000000000000000000000000000000061241c565b90505b90565b6000808380549050905060005b81811015611cfe576000611ca08284612456565b905084868281548110611cb657611cb561326a565b5b9060005260206000200160000160009054906101000a900463ffffffff1663ffffffff161115611ce857809250611cf8565b600181611cf591906130ba565b91505b50611c8c565b60008214611d605784600183611d149190613236565b81548110611d2557611d2461326a565b5b9060005260206000200160000160049054906101000a90047bffffffffffffffffffffffffffffffffffffffffffffffffffffffff16611d63565b60005b7bffffffffffffffffffffffffffffffffffffffffffffffffffffffff169250505092915050565b6000611d9683610857565b90506000611da384610a7e565b905082600760008673ffffffffffffffffffffffffffffffffffffffff1673ffffffffffffffffffffffffffffffffffffffff16815260200190815260200160002060006101000a81548173ffffffffffffffffffffffffffffffffffffffff021916908373ffffffffffffffffffffffffffffffffffffffff1602179055508273ffffffffffffffffffffffffffffffffffffffff168273ffffffffffffffffffffffffffffffffffffffff168573ffffffffffffffffffffffffffffffffffffffff167f3134e8a2e6d97e929a7e54011ea5485d7d196dd5f0ba4d4ef95803e8e3fc257f60405160405180910390a4611e9f828483612223565b50505050565b611eaf828261247c565b5050565b600081600001549050919050565b611ecb8282611383565b5050565b6000611ee2611edc611b65565b8361249a565b9050919050565b6000806000611efa878787876124cd565b91509150611f07816125d9565b8192505050949350505050565b600080600560008473ffffffffffffffffffffffffffffffffffffffff1673ffffffffffffffffffffffffffffffffffffffff1681526020019081526020016000209050611f6181611eb3565b9150611f6c816127a5565b50919050565b60007bffffffffffffffffffffffffffffffffffffffffffffffffffffffff905090565b600080600085805490509050600081146120045785600182611fb89190613236565b81548110611fc957611fc861326a565b5b9060005260206000200160000160049054906101000a90047bffffffffffffffffffffffffffffffffffffffffffffffffffffffff16612007565b60005b7bffffffffffffffffffffffffffffffffffffffffffffffffffffffff16925061203583858763ffffffff16565b9150600081118015612088575043866001836120519190613236565b815481106120625761206161326a565b5b9060005260206000200160000160009054906101000a900463ffffffff1663ffffffff16145b156121155761209682611585565b866001836120a49190613236565b815481106120b5576120b461326a565b5b9060005260206000200160000160046101000a8154817bffffffffffffffffffffffffffffffffffffffffffffffffffffffff02191690837bffffffffffffffffffffffffffffffffffffffffffffffffffffffff160217905550612205565b85604051806040016040528061212a436115f0565b63ffffffff16815260200161213e85611585565b7bffffffffffffffffffffffffffffffffffffffffffffffffffffffff168152509080600181540180825580915050600190039060005260206000200160009091909190915060008201518160000160006101000a81548163ffffffff021916908363ffffffff16021790555060208201518160000160046101000a8154817bffffffffffffffffffffffffffffffffffffffffffffffffffffffff02191690837bffffffffffffffffffffffffffffffffffffffffffffffffffffffff16021790555050505b50935093915050565b505050565b61221e838383611643565b505050565b8173ffffffffffffffffffffffffffffffffffffffff168373ffffffffffffffffffffffffffffffffffffffff161415801561225f5750600081115b1561241757600073ffffffffffffffffffffffffffffffffffffffff168373ffffffffffffffffffffffffffffffffffffffff161461233d576000806122e6600860008773ffffffffffffffffffffffffffffffffffffffff1673ffffffffffffffffffffffffffffffffffffffff16815260200190815260200160002061167385611f96565b915091508473ffffffffffffffffffffffffffffffffffffffff167fdec2bacdd2f05b59de34da9b523dff8be42e5e38e818c82fdb0bae774387a7248383604051612332929190612d3f565b60405180910390a250505b600073ffffffffffffffffffffffffffffffffffffffff168273ffffffffffffffffffffffffffffffffffffffff1614612416576000806123bf600860008673ffffffffffffffffffffffffffffffffffffffff1673ffffffffffffffffffffffffffffffffffffffff16815260200190815260200160002061156f85611f96565b915091508373ffffffffffffffffffffffffffffffffffffffff167fdec2bacdd2f05b59de34da9b523dff8be42e5e38e818c82fdb0bae774387a724838360405161240b929190612d3f565b60405180910390a250505b5b505050565b60008383834630604051602001612437959493929190613c67565b6040516020818303038152906040528051906020012090509392505050565b600060028284186124679190613205565b82841661247491906130ba565b905092915050565b61248682826127bb565b612494600961167383611f96565b50505050565b600082826040516020016124af929190613d32565b60405160208183030381529060405280519060200120905092915050565b6000807f7fffffffffffffffffffffffffffffff5d576e7357a4501ddfe92f46681b20a08360001c11156125085760006003915091506125d0565b601b8560ff16141580156125205750601c8560ff1614155b156125325760006004915091506125d0565b6000600187878787604051600081526020016040526040516125579493929190613d69565b6020604051602081039080840390855afa158015612579573d6000803e3d6000fd5b505050602060405103519050600073ffffffffffffffffffffffffffffffffffffffff168173ffffffffffffffffffffffffffffffffffffffff16036125c7576000600192509250506125d0565b80600092509250505b94509492505050565b600060048111156125ed576125ec613dae565b5b816004811115612600576125ff613dae565b5b03156127a2576001600481111561261a57612619613dae565b5b81600481111561262d5761262c613dae565b5b0361266d576040517f08c379a000000000000000000000000000000000000000000000000000000000815260040161266490613e29565b60405180910390fd5b6002600481111561268157612680613dae565b5b81600481111561269457612693613dae565b5b036126d4576040517f08c379a00000000000000000000000000000000000000000000000000000000081526004016126cb90613e95565b60405180910390fd5b600360048111156126e8576126e7613dae565b5b8160048111156126fb576126fa613dae565b5b0361273b576040517f08c379a000000000000000000000000000000000000000000000000000000000815260040161273290613f27565b60405180910390fd5b60048081111561274e5761274d613dae565b5b81600481111561276157612760613dae565b5b036127a1576040517f08c379a000000000000000000000000000000000000000000000000000000000815260040161279890613fb9565b60405180910390fd5b5b50565b6001816000016000828254019250508190555050565b600073ffffffffffffffffffffffffffffffffffffffff168273ffffffffffffffffffffffffffffffffffffffff160361282a576040517f08c379a00000000000000000000000000000000000000000000000000000000081526004016128219061404b565b60405180910390fd5b6128368260008361220e565b60008060008473ffffffffffffffffffffffffffffffffffffffff1673ffffffffffffffffffffffffffffffffffffffff168152602001908152602001600020549050818110156128bc576040517f08c379a00000000000000000000000000000000000000000000000000000000081526004016128b3906140dd565b60405180910390fd5b8181036000808573ffffffffffffffffffffffffffffffffffffffff1673ffffffffffffffffffffffffffffffffffffffff1681526020019081526020016000208190555081600260008282546129139190613236565b92505081905550600073ffffffffffffffffffffffffffffffffffffffff168373ffffffffffffffffffffffffffffffffffffffff167fddf252ad1be2c89b69c2b068fc378daa952ba7f163c4a11628f55a4df523b3ef846040516129789190612ba8565b60405180910390a361298c83600084612213565b505050565b6040518060400160405280600063ffffffff16815260200160007bffffffffffffffffffffffffffffffffffffffffffffffffffffffff1681525090565b600081519050919050565b600082825260208201905092915050565b60005b83811015612a095780820151818401526020810190506129ee565b83811115612a18576000848401525b50505050565b6000601f19601f8301169050919050565b6000612a3a826129cf565b612a4481856129da565b9350612a548185602086016129eb565b612a5d81612a1e565b840191505092915050565b60006020820190508181036000830152612a828184612a2f565b905092915050565b600080fd5b600073ffffffffffffffffffffffffffffffffffffffff82169050919050565b6000612aba82612a8f565b9050919050565b612aca81612aaf565b8114612ad557600080fd5b50565b600081359050612ae781612ac1565b92915050565b6000819050919050565b612b0081612aed565b8114612b0b57600080fd5b50565b600081359050612b1d81612af7565b92915050565b60008060408385031215612b3a57612b39612a8a565b5b6000612b4885828601612ad8565b9250506020612b5985828601612b0e565b9150509250929050565b60008115159050919050565b612b7881612b63565b82525050565b6000602082019050612b936000830184612b6f565b92915050565b612ba281612aed565b82525050565b6000602082019050612bbd6000830184612b99565b92915050565b600080600060608486031215612bdc57612bdb612a8a565b5b6000612bea86828701612ad8565b9350506020612bfb86828701612ad8565b9250506040612c0c86828701612b0e565b9150509250925092565b600060ff82169050919050565b612c2c81612c16565b82525050565b6000602082019050612c476000830184612c23565b92915050565b6000819050919050565b612c6081612c4d565b82525050565b6000602082019050612c7b6000830184612c57565b92915050565b600060208284031215612c9757612c96612a8a565b5b6000612ca584828501612ad8565b91505092915050565b612cb781612aaf565b82525050565b6000602082019050612cd26000830184612cae565b92915050565b600060208284031215612cee57612ced612a8a565b5b6000612cfc84828501612b0e565b91505092915050565b600063ffffffff82169050919050565b612d1e81612d05565b82525050565b6000602082019050612d396000830184612d15565b92915050565b6000604082019050612d546000830185612b99565b612d616020830184612b99565b9392505050565b612d7181612c16565b8114612d7c57600080fd5b50565b600081359050612d8e81612d68565b92915050565b612d9d81612c4d565b8114612da857600080fd5b50565b600081359050612dba81612d94565b92915050565b60008060008060008060c08789031215612ddd57612ddc612a8a565b5b6000612deb89828a01612ad8565b9650506020612dfc89828a01612b0e565b9550506040612e0d89828a01612b0e565b9450506060612e1e89828a01612d7f565b9350506080612e2f89828a01612dab565b92505060a0612e4089828a01612dab565b9150509295509295509295565b600080600080600080600060e0888a031215612e6c57612e6b612a8a565b5b6000612e7a8a828b01612ad8565b9750506020612e8b8a828b01612ad8565b9650506040612e9c8a828b01612b0e565b9550506060612ead8a828b01612b0e565b9450506080612ebe8a828b01612d7f565b93505060a0612ecf8a828b01612dab565b92505060c0612ee08a828b01612dab565b91505092959891949750929550565b60008060408385031215612f0657612f05612a8a565b5b6000612f1485828601612ad8565b9250506020612f2585828601612ad8565b9150509250929050565b612f3881612d05565b8114612f4357600080fd5b50565b600081359050612f5581612f2f565b92915050565b60008060408385031215612f7257612f71612a8a565b5b6000612f8085828601612ad8565b9250506020612f9185828601612f46565b9150509250929050565b612fa481612d05565b82525050565b60007bffffffffffffffffffffffffffffffffffffffffffffffffffffffff82169050919050565b612fdb81612faa565b82525050565b604082016000820151612ff76000850182612f9b565b50602082015161300a6020850182612fd2565b50505050565b60006040820190506130256000830184612fe1565b92915050565b7f4e487b7100000000000000000000000000000000000000000000000000000000600052602260045260246000fd5b6000600282049050600182168061307257607f821691505b6020821081036130855761308461302b565b5b50919050565b7f4e487b7100000000000000000000000000000000000000000000000000000000600052601160045260246000fd5b60006130c582612aed565b91506130d083612aed565b9250827fffffffffffffffffffffffffffffffffffffffffffffffffffffffffffffffff038211156131055761310461308b565b5b828201905092915050565b7f4552433230566f7465733a20626c6f636b206e6f7420796574206d696e656400600082015250565b6000613146601f836129da565b915061315182613110565b602082019050919050565b6000602082019050818103600083015261317581613139565b9050919050565b600061318782612aed565b915061319283612aed565b9250817fffffffffffffffffffffffffffffffffffffffffffffffffffffffffffffffff04831182151516156131cb576131ca61308b565b5b828202905092915050565b7f4e487b7100000000000000000000000000000000000000000000000000000000600052601260045260246000fd5b600061321082612aed565b915061321b83612aed565b92508261322b5761322a6131d6565b5b828204905092915050565b600061324182612aed565b915061324c83612aed565b92508282101561325f5761325e61308b565b5b828203905092915050565b7f4e487b7100000000000000000000000000000000000000000000000000000000600052603260045260246000fd5b7f45524332303a2064656372656173656420616c6c6f77616e63652062656c6f7760008201527f207a65726f000000000000000000000000000000000000000000000000000000602082015250565b60006132f56025836129da565b915061330082613299565b604082019050919050565b60006020820190508181036000830152613324816132e8565b9050919050565b60008160011c9050919050565b6000808291508390505b60018511156133825780860481111561335e5761335d61308b565b5b600185161561336d5780820291505b808102905061337b8561332b565b9450613342565b94509492505050565b60008261339b5760019050613457565b816133a95760009050613457565b81600181146133bf57600281146133c9576133f8565b6001915050613457565b60ff8411156133db576133da61308b565b5b8360020a9150848211156133f2576133f161308b565b5b50613457565b5060208310610133831016604e8410600b841016171561342d5782820a9050838111156134285761342761308b565b5b613457565b61343a8484846001613338565b925090508184048111156134515761345061308b565b5b81810290505b9392505050565b600061346982612aed565b915061347483612c16565b92506134a17fffffffffffffffffffffffffffffffffffffffffffffffffffffffffffffffff848461338b565b905092915050565b7f4552433230566f7465733a207369676e61747572652065787069726564000000600082015250565b60006134df601d836129da565b91506134ea826134a9565b602082019050919050565b6000602082019050818103600083015261350e816134d2565b9050919050565b600060808201905061352a6000830187612c57565b6135376020830186612cae565b6135446040830185612b99565b6135516060830184612b99565b95945050505050565b7f4552433230566f7465733a20696e76616c6964206e6f6e636500000000000000600082015250565b60006135906019836129da565b915061359b8261355a565b602082019050919050565b600060208201905081810360008301526135bf81613583565b9050919050565b7f45524332305065726d69743a206578706972656420646561646c696e65000000600082015250565b60006135fc601d836129da565b9150613607826135c6565b602082019050919050565b6000602082019050818103600083015261362b816135ef565b9050919050565b600060c0820190506136476000830189612c57565b6136546020830188612cae565b6136616040830187612cae565b61366e6060830186612b99565b61367b6080830185612b99565b61368860a0830184612b99565b979650505050505050565b7f45524332305065726d69743a20696e76616c6964207369676e61747572650000600082015250565b60006136c9601e836129da565b91506136d482613693565b602082019050919050565b600060208201905081810360008301526136f8816136bc565b9050919050565b7f4552433230566f7465733a20746f74616c20737570706c79207269736b73206f60008201527f766572666c6f77696e6720766f74657300000000000000000000000000000000602082015250565b600061375b6030836129da565b9150613766826136ff565b604082019050919050565b6000602082019050818103600083015261378a8161374e565b9050919050565b7f45524332303a206d696e7420746f20746865207a65726f206164647265737300600082015250565b60006137c7601f836129da565b91506137d282613791565b602082019050919050565b600060208201905081810360008301526137f6816137ba565b9050919050565b7f53616665436173743a2076616c756520646f65736e27742066697420696e203260008201527f3234206269747300000000000000000000000000000000000000000000000000602082015250565b60006138596027836129da565b9150613864826137fd565b604082019050919050565b600060208201905081810360008301526138888161384c565b9050919050565b7f53616665436173743a2076616c756520646f65736e27742066697420696e203360008201527f3220626974730000000000000000000000000000000000000000000000000000602082015250565b60006138eb6026836129da565b91506138f68261388f565b604082019050919050565b6000602082019050818103600083015261391a816138de565b9050919050565b7f45524332303a20617070726f76652066726f6d20746865207a65726f2061646460008201527f7265737300000000000000000000000000000000000000000000000000000000602082015250565b600061397d6024836129da565b915061398882613921565b604082019050919050565b600060208201905081810360008301526139ac81613970565b9050919050565b7f45524332303a20617070726f766520746f20746865207a65726f20616464726560008201527f7373000000000000000000000000000000000000000000000000000000000000602082015250565b6000613a0f6022836129da565b9150613a1a826139b3565b604082019050919050565b60006020820190508181036000830152613a3e81613a02565b9050919050565b7f45524332303a20696e73756666696369656e7420616c6c6f77616e6365000000600082015250565b6000613a7b601d836129da565b9150613a8682613a45565b602082019050919050565b60006020820190508181036000830152613aaa81613a6e565b9050919050565b7f45524332303a207472616e736665722066726f6d20746865207a65726f20616460008201527f6472657373000000000000000000000000000000000000000000000000000000602082015250565b6000613b0d6025836129da565b9150613b1882613ab1565b604082019050919050565b60006020820190508181036000830152613b3c81613b00565b9050919050565b7f45524332303a207472616e7366657220746f20746865207a65726f206164647260008201527f6573730000000000000000000000000000000000000000000000000000000000602082015250565b6000613b9f6023836129da565b9150613baa82613b43565b604082019050919050565b60006020820190508181036000830152613bce81613b92565b9050919050565b7f45524332303a207472616e7366657220616d6f756e742065786365656473206260008201527f616c616e63650000000000000000000000000000000000000000000000000000602082015250565b6000613c316026836129da565b9150613c3c82613bd5565b604082019050919050565b60006020820190508181036000830152613c6081613c24565b9050919050565b600060a082019050613c7c6000830188612c57565b613c896020830187612c57565b613c966040830186612c57565b613ca36060830185612b99565b613cb06080830184612cae565b9695505050505050565b600081905092915050565b7f1901000000000000000000000000000000000000000000000000000000000000600082015250565b6000613cfb600283613cba565b9150613d0682613cc5565b600282019050919050565b6000819050919050565b613d2c613d2782612c4d565b613d11565b82525050565b6000613d3d82613cee565b9150613d498285613d1b565b602082019150613d598284613d1b565b6020820191508190509392505050565b6000608082019050613d7e6000830187612c57565b613d8b6020830186612c23565b613d986040830185612c57565b613da56060830184612c57565b95945050505050565b7f4e487b7100000000000000000000000000000000000000000000000000000000600052602160045260246000fd5b7f45434453413a20696e76616c6964207369676e61747572650000000000000000600082015250565b6000613e136018836129da565b9150613e1e82613ddd565b602082019050919050565b60006020820190508181036000830152613e4281613e06565b9050919050565b7f45434453413a20696e76616c6964207369676e6174757265206c656e67746800600082015250565b6000613e7f601f836129da565b9150613e8a82613e49565b602082019050919050565b60006020820190508181036000830152613eae81613e72565b9050919050565b7f45434453413a20696e76616c6964207369676e6174757265202773272076616c60008201527f7565000000000000000000000000000000000000000000000000000000000000602082015250565b6000613f116022836129da565b9150613f1c82613eb5565b604082019050919050565b60006020820190508181036000830152613f4081613f04565b9050919050565b7f45434453413a20696e76616c6964207369676e6174757265202776272076616c60008201527f7565000000000000000000000000000000000000000000000000000000000000602082015250565b6000613fa36022836129da565b9150613fae82613f47565b604082019050919050565b60006020820190508181036000830152613fd281613f96565b9050919050565b7f45524332303a206275726e2066726f6d20746865207a65726f2061646472657360008201527f7300000000000000000000000000000000000000000000000000000000000000602082015250565b60006140356021836129da565b915061404082613fd9565b604082019050919050565b6000602082019050818103600083015261406481614028565b9050919050565b7f45524332303a206275726e20616d6f756e7420657863656564732062616c616e60008201527f6365000000000000000000000000000000000000000000000000000000000000602082015250565b60006140c76022836129da565b91506140d28261406b565b604082019050919050565b600060208201905081810360008301526140f6816140ba565b905091905056fea26469706673582212209589475eaa665eb985fc2a1556bbbb1d8b4a45b1b816c9add66394c20d40fd3a64736f6c634300080f0033",
  "immutableReferences": {
    "2346": [
      {
        "length": 32,
        "start": 7144
      }
    ],
    "2348": [
      {
        "length": 32,
        "start": 7103
      }
    ],
    "2350": [
      {
        "length": 32,
        "start": 7017
      }
    ],
    "2352": [
      {
        "length": 32,
        "start": 7220
      }
    ],
    "2354": [
      {
        "length": 32,
        "start": 7253
      }
    ],
    "2356": [
      {
        "length": 32,
        "start": 7187
      }
    ]
  },
  "source": "// contracts/AthleteToken.sol\n// SPDX-License-Identifier: MIT\npragma solidity ^0.8.0;\n\nimport \"@openzeppelin/contracts/token/ERC20/ERC20.sol\";\nimport \"@openzeppelin/contracts/token/ERC20/extensions/draft-ERC20Permit.sol\";\nimport \"@openzeppelin/contracts/token/ERC20/extensions/ERC20Votes.sol\";\n\ncontract AthleteToken is ERC20, ERC20Permit, ERC20Votes {\n\n    uint public initialSupply = 1000000000e8;\n    uint public tokenTotalStake;\n    uint public difficultyPerBlock;\n    uint public athletePool;\n\n    mapping(address => mapping(uint => Stake)) public stakeSubscriptions;\n\n    struct Stake {\n        uint amount;\n        uint blockId;\n    }\n\n    constructor() ERC20(\"Athlete Token\", \"ATH\") ERC20Permit(\"Athlete Token\") {\n        _mint(msg.sender, initialSupply);\n    }\n\n    function decimals() public view virtual override returns (uint8) {\n        return 8;\n    }\n\n    function subscribeStake(uint _amount) public {\n        require(balanceOf(msg.sender) >= _amount);\n        require(_amount > (100e8));\n        require(stakeSubscriptions[msg.sender][block.number].amount == 0);\n        _burn(msg.sender, _amount);\n        tokenTotalStake += _amount;\n        stakeSubscriptions[msg.sender][block.number] = Stake(_amount, block.number);\n        difficultyPerBlock = (initialSupply + (tokenTotalStake * 10)) / 100;\n    }\n\n    function unsubscribeStake(uint _blockNumber) public {\n        uint amountStake = stakeSubscriptions[msg.sender][_blockNumber].amount;\n        uint timeBlocks = (block.number - _blockNumber) * 10 ** decimals();\n        require(amountStake > 0);\n        require(block.number > _blockNumber);\n        tokenTotalStake -= amountStake;\n        uint rewards = amountStake / (difficultyPerBlock / timeBlocks);\n        athletePool += rewards;\n        _mint(msg.sender, amountStake + rewards);\n        stakeSubscriptions[msg.sender][_blockNumber].amount = 0;\n    }\n\n    function balanceStaked(address wallet, uint _blockNumber) public view returns (uint) {\n        return stakeSubscriptions[wallet][_blockNumber].amount;\n    }\n\n    function _afterTokenTransfer(address from, address to, uint256 amount)\n        internal\n        override(ERC20, ERC20Votes)\n    {\n        super._afterTokenTransfer(from, to, amount);\n    }\n\n    function _mint(address to, uint256 amount)\n        internal\n        override(ERC20, ERC20Votes)\n    {\n        super._mint(to, amount);\n    }\n\n    function _burn(address account, uint256 amount)\n        internal\n        override(ERC20, ERC20Votes)\n    {\n        super._burn(account, amount);\n    }\n\n}",
  "sourcePath": "/home/aamorim/Projects/athlete-dapp/contracts/AthleteToken.sol",
  "compiler": {
    "name": "solc",
    "version": "0.8.15+commit.e14f2714.Emscripten.clang"
  },
  "schemaVersion": "3.4.8",
  "updatedAt": "2022-07-09T03:50:10.010Z",
  "networkType": "ethereum",
  "devdoc": {
    "kind": "dev",
    "methods": {
      "DOMAIN_SEPARATOR()": {
        "details": "See {IERC20Permit-DOMAIN_SEPARATOR}."
      },
      "allowance(address,address)": {
        "details": "See {IERC20-allowance}."
      },
      "approve(address,uint256)": {
        "details": "See {IERC20-approve}. NOTE: If `amount` is the maximum `uint256`, the allowance is not updated on `transferFrom`. This is semantically equivalent to an infinite approval. Requirements: - `spender` cannot be the zero address."
      },
      "balanceOf(address)": {
        "details": "See {IERC20-balanceOf}."
      },
      "checkpoints(address,uint32)": {
        "details": "Get the `pos`-th checkpoint for `account`."
      },
      "decimals()": {
        "details": "Returns the number of decimals used to get its user representation. For example, if `decimals` equals `2`, a balance of `505` tokens should be displayed to a user as `5.05` (`505 / 10 ** 2`). Tokens usually opt for a value of 18, imitating the relationship between Ether and Wei. This is the value {ERC20} uses, unless this function is overridden; NOTE: This information is only used for _display_ purposes: it in no way affects any of the arithmetic of the contract, including {IERC20-balanceOf} and {IERC20-transfer}."
      },
      "decreaseAllowance(address,uint256)": {
        "details": "Atomically decreases the allowance granted to `spender` by the caller. This is an alternative to {approve} that can be used as a mitigation for problems described in {IERC20-approve}. Emits an {Approval} event indicating the updated allowance. Requirements: - `spender` cannot be the zero address. - `spender` must have allowance for the caller of at least `subtractedValue`."
      },
      "delegate(address)": {
        "details": "Delegate votes from the sender to `delegatee`."
      },
      "delegateBySig(address,uint256,uint256,uint8,bytes32,bytes32)": {
        "details": "Delegates votes from signer to `delegatee`"
      },
      "delegates(address)": {
        "details": "Get the address `account` is currently delegating to."
      },
      "getPastTotalSupply(uint256)": {
        "details": "Retrieve the `totalSupply` at the end of `blockNumber`. Note, this value is the sum of all balances. It is but NOT the sum of all the delegated votes! Requirements: - `blockNumber` must have been already mined"
      },
      "getPastVotes(address,uint256)": {
        "details": "Retrieve the number of votes for `account` at the end of `blockNumber`. Requirements: - `blockNumber` must have been already mined"
      },
      "getVotes(address)": {
        "details": "Gets the current votes balance for `account`"
      },
      "increaseAllowance(address,uint256)": {
        "details": "Atomically increases the allowance granted to `spender` by the caller. This is an alternative to {approve} that can be used as a mitigation for problems described in {IERC20-approve}. Emits an {Approval} event indicating the updated allowance. Requirements: - `spender` cannot be the zero address."
      },
      "name()": {
        "details": "Returns the name of the token."
      },
      "nonces(address)": {
        "details": "See {IERC20Permit-nonces}."
      },
      "numCheckpoints(address)": {
        "details": "Get number of checkpoints for `account`."
      },
      "permit(address,address,uint256,uint256,uint8,bytes32,bytes32)": {
        "details": "See {IERC20Permit-permit}."
      },
      "symbol()": {
        "details": "Returns the symbol of the token, usually a shorter version of the name."
      },
      "totalSupply()": {
        "details": "See {IERC20-totalSupply}."
      },
      "transfer(address,uint256)": {
        "details": "See {IERC20-transfer}. Requirements: - `to` cannot be the zero address. - the caller must have a balance of at least `amount`."
      },
      "transferFrom(address,address,uint256)": {
        "details": "See {IERC20-transferFrom}. Emits an {Approval} event indicating the updated allowance. This is not required by the EIP. See the note at the beginning of {ERC20}. NOTE: Does not update the allowance if the current allowance is the maximum `uint256`. Requirements: - `from` and `to` cannot be the zero address. - `from` must have a balance of at least `amount`. - the caller must have allowance for ``from``'s tokens of at least `amount`."
      }
    },
    "version": 1
  },
  "userdoc": {
    "kind": "user",
    "methods": {},
    "version": 1
  }
}