{
  "contractName": "AthleteToken",
  "abi": [
    {
      "inputs": [],
      "stateMutability": "nonpayable",
      "type": "constructor"
    },
    {
      "anonymous": false,
      "inputs": [
        {
          "indexed": true,
          "internalType": "address",
          "name": "owner",
          "type": "address"
        },
        {
          "indexed": true,
          "internalType": "address",
          "name": "spender",
          "type": "address"
        },
        {
          "indexed": false,
          "internalType": "uint256",
          "name": "value",
          "type": "uint256"
        }
      ],
      "name": "Approval",
      "type": "event"
    },
    {
      "anonymous": false,
      "inputs": [
        {
          "indexed": true,
          "internalType": "address",
          "name": "from",
          "type": "address"
        },
        {
          "indexed": true,
          "internalType": "address",
          "name": "to",
          "type": "address"
        },
        {
          "indexed": false,
          "internalType": "uint256",
          "name": "value",
          "type": "uint256"
        }
      ],
      "name": "Transfer",
      "type": "event"
    },
    {
      "inputs": [
        {
          "internalType": "address",
          "name": "owner",
          "type": "address"
        },
        {
          "internalType": "address",
          "name": "spender",
          "type": "address"
        }
      ],
      "name": "allowance",
      "outputs": [
        {
          "internalType": "uint256",
          "name": "",
          "type": "uint256"
        }
      ],
      "stateMutability": "view",
      "type": "function",
      "constant": true
    },
    {
      "inputs": [
        {
          "internalType": "address",
          "name": "spender",
          "type": "address"
        },
        {
          "internalType": "uint256",
          "name": "amount",
          "type": "uint256"
        }
      ],
      "name": "approve",
      "outputs": [
        {
          "internalType": "bool",
          "name": "",
          "type": "bool"
        }
      ],
      "stateMutability": "nonpayable",
      "type": "function"
    },
    {
      "inputs": [
        {
          "internalType": "address",
          "name": "account",
          "type": "address"
        }
      ],
      "name": "balanceOf",
      "outputs": [
        {
          "internalType": "uint256",
          "name": "",
          "type": "uint256"
        }
      ],
      "stateMutability": "view",
      "type": "function",
      "constant": true
    },
    {
      "inputs": [
        {
          "internalType": "address",
          "name": "spender",
          "type": "address"
        },
        {
          "internalType": "uint256",
          "name": "subtractedValue",
          "type": "uint256"
        }
      ],
      "name": "decreaseAllowance",
      "outputs": [
        {
          "internalType": "bool",
          "name": "",
          "type": "bool"
        }
      ],
      "stateMutability": "nonpayable",
      "type": "function"
    },
    {
      "inputs": [],
      "name": "difficultyPerBlock",
      "outputs": [
        {
          "internalType": "uint256",
          "name": "",
          "type": "uint256"
        }
      ],
      "stateMutability": "view",
      "type": "function",
      "constant": true
    },
    {
      "inputs": [
        {
          "internalType": "address",
          "name": "spender",
          "type": "address"
        },
        {
          "internalType": "uint256",
          "name": "addedValue",
          "type": "uint256"
        }
      ],
      "name": "increaseAllowance",
      "outputs": [
        {
          "internalType": "bool",
          "name": "",
          "type": "bool"
        }
      ],
      "stateMutability": "nonpayable",
      "type": "function"
    },
    {
      "inputs": [],
      "name": "initialSupply",
      "outputs": [
        {
          "internalType": "uint256",
          "name": "",
          "type": "uint256"
        }
      ],
      "stateMutability": "view",
      "type": "function",
      "constant": true
    },
    {
      "inputs": [],
      "name": "name",
      "outputs": [
        {
          "internalType": "string",
          "name": "",
          "type": "string"
        }
      ],
      "stateMutability": "view",
      "type": "function",
      "constant": true
    },
    {
      "inputs": [
        {
          "internalType": "address",
          "name": "",
          "type": "address"
        },
        {
          "internalType": "uint256",
          "name": "",
          "type": "uint256"
        }
      ],
      "name": "stakeSubscriptions",
      "outputs": [
        {
          "internalType": "uint256",
          "name": "amount",
          "type": "uint256"
        },
        {
          "internalType": "uint256",
          "name": "blockId",
          "type": "uint256"
        }
      ],
      "stateMutability": "view",
      "type": "function",
      "constant": true
    },
    {
      "inputs": [],
      "name": "symbol",
      "outputs": [
        {
          "internalType": "string",
          "name": "",
          "type": "string"
        }
      ],
      "stateMutability": "view",
      "type": "function",
      "constant": true
    },
    {
      "inputs": [],
      "name": "tokenTotalStake",
      "outputs": [
        {
          "internalType": "uint256",
          "name": "",
          "type": "uint256"
        }
      ],
      "stateMutability": "view",
      "type": "function",
      "constant": true
    },
    {
      "inputs": [],
      "name": "totalSupply",
      "outputs": [
        {
          "internalType": "uint256",
          "name": "",
          "type": "uint256"
        }
      ],
      "stateMutability": "view",
      "type": "function",
      "constant": true
    },
    {
      "inputs": [
        {
          "internalType": "address",
          "name": "to",
          "type": "address"
        },
        {
          "internalType": "uint256",
          "name": "amount",
          "type": "uint256"
        }
      ],
      "name": "transfer",
      "outputs": [
        {
          "internalType": "bool",
          "name": "",
          "type": "bool"
        }
      ],
      "stateMutability": "nonpayable",
      "type": "function"
    },
    {
      "inputs": [
        {
          "internalType": "address",
          "name": "from",
          "type": "address"
        },
        {
          "internalType": "address",
          "name": "to",
          "type": "address"
        },
        {
          "internalType": "uint256",
          "name": "amount",
          "type": "uint256"
        }
      ],
      "name": "transferFrom",
      "outputs": [
        {
          "internalType": "bool",
          "name": "",
          "type": "bool"
        }
      ],
      "stateMutability": "nonpayable",
      "type": "function"
    },
    {
      "inputs": [],
      "name": "decimals",
      "outputs": [
        {
          "internalType": "uint8",
          "name": "",
          "type": "uint8"
        }
      ],
      "stateMutability": "view",
      "type": "function",
      "constant": true
    },
    {
      "inputs": [
        {
          "internalType": "uint256",
          "name": "_amount",
          "type": "uint256"
        }
      ],
      "name": "subscribeStake",
      "outputs": [],
      "stateMutability": "nonpayable",
      "type": "function"
    },
    {
      "inputs": [
        {
          "internalType": "uint256",
          "name": "_blockNumber",
          "type": "uint256"
        }
      ],
      "name": "unsubscribeStake",
      "outputs": [],
      "stateMutability": "nonpayable",
      "type": "function"
    },
    {
      "inputs": [
        {
          "internalType": "address",
          "name": "wallet",
          "type": "address"
        },
        {
          "internalType": "uint256",
          "name": "_blockNumber",
          "type": "uint256"
        }
      ],
      "name": "balanceStaked",
      "outputs": [
        {
          "internalType": "uint256",
          "name": "",
          "type": "uint256"
        }
      ],
      "stateMutability": "view",
      "type": "function",
      "constant": true
    }
  ],
  "bytecode": "0x608060405267016345785d8a00006007553480156200001d57600080fd5b506040518060400160405280600d81526020017f4174686c65746520546f6b656e000000000000000000000000000000000000008152506040518060400160405280600381526020017f415448000000000000000000000000000000000000000000000000000000000081525081600390816200009b9190620004c6565b508060049081620000ad9190620004c6565b505050620000c433600754620000ca60201b60201c565b620006ea565b600073ffffffffffffffffffffffffffffffffffffffff168273ffffffffffffffffffffffffffffffffffffffff16036200013c576040517f08c379a000000000000000000000000000000000000000000000000000000000815260040162000133906200060e565b60405180910390fd5b62000150600083836200024260201b60201c565b80600260008282546200016491906200065f565b92505081905550806000808473ffffffffffffffffffffffffffffffffffffffff1673ffffffffffffffffffffffffffffffffffffffff1681526020019081526020016000206000828254620001bb91906200065f565b925050819055508173ffffffffffffffffffffffffffffffffffffffff16600073ffffffffffffffffffffffffffffffffffffffff167fddf252ad1be2c89b69c2b068fc378daa952ba7f163c4a11628f55a4df523b3ef83604051620002229190620006cd565b60405180910390a36200023e600083836200024760201b60201c565b5050565b505050565b505050565b600081519050919050565b7f4e487b7100000000000000000000000000000000000000000000000000000000600052604160045260246000fd5b7f4e487b7100000000000000000000000000000000000000000000000000000000600052602260045260246000fd5b60006002820490506001821680620002ce57607f821691505b602082108103620002e457620002e362000286565b5b50919050565b60008190508160005260206000209050919050565b60006020601f8301049050919050565b600082821b905092915050565b6000600883026200034e7fffffffffffffffffffffffffffffffffffffffffffffffffffffffffffffffff826200030f565b6200035a86836200030f565b95508019841693508086168417925050509392505050565b6000819050919050565b6000819050919050565b6000620003a7620003a16200039b8462000372565b6200037c565b62000372565b9050919050565b6000819050919050565b620003c38362000386565b620003db620003d282620003ae565b8484546200031c565b825550505050565b600090565b620003f2620003e3565b620003ff818484620003b8565b505050565b5b8181101562000427576200041b600082620003e8565b60018101905062000405565b5050565b601f82111562000476576200044081620002ea565b6200044b84620002ff565b810160208510156200045b578190505b620004736200046a85620002ff565b83018262000404565b50505b505050565b600082821c905092915050565b60006200049b600019846008026200047b565b1980831691505092915050565b6000620004b6838362000488565b9150826002028217905092915050565b620004d1826200024c565b67ffffffffffffffff811115620004ed57620004ec62000257565b5b620004f98254620002b5565b620005068282856200042b565b600060209050601f8311600181146200053e576000841562000529578287015190505b620005358582620004a8565b865550620005a5565b601f1984166200054e86620002ea565b60005b82811015620005785784890151825560018201915060208501945060208101905062000551565b8683101562000598578489015162000594601f89168262000488565b8355505b6001600288020188555050505b505050505050565b600082825260208201905092915050565b7f45524332303a206d696e7420746f20746865207a65726f206164647265737300600082015250565b6000620005f6601f83620005ad565b91506200060382620005be565b602082019050919050565b600060208201905081810360008301526200062981620005e7565b9050919050565b7f4e487b7100000000000000000000000000000000000000000000000000000000600052601160045260246000fd5b60006200066c8262000372565b9150620006798362000372565b9250827fffffffffffffffffffffffffffffffffffffffffffffffffffffffffffffffff03821115620006b157620006b062000630565b5b828201905092915050565b620006c78162000372565b82525050565b6000602082019050620006e46000830184620006bc565b92915050565b611d0680620006fa6000396000f3fe608060405234801561001057600080fd5b50600436106101165760003560e01c806370a08231116100a2578063a9059cbb11610071578063a9059cbb1461030c578063a9f78ca51461033c578063dd62ed3e14610358578063e2fccf7814610388578063f68a8217146103a657610116565b806370a082311461025d578063735f366c1461028d57806395d89b41146102be578063a457c2d7146102dc57610116565b8063313ce567116100e9578063313ce567146101b7578063378dc3dc146101d557806339509351146101f35780633a58e7e0146102235780636f16b4ec1461024157610116565b806306fdde031461011b578063095ea7b31461013957806318160ddd1461016957806323b872dd14610187575b600080fd5b6101236103d6565b60405161013091906112ed565b60405180910390f35b610153600480360381019061014e91906113a8565b610468565b6040516101609190611403565b60405180910390f35b61017161048b565b60405161017e919061142d565b60405180910390f35b6101a1600480360381019061019c9190611448565b610495565b6040516101ae9190611403565b60405180910390f35b6101bf6104c4565b6040516101cc91906114b7565b60405180910390f35b6101dd6104cd565b6040516101ea919061142d565b60405180910390f35b61020d600480360381019061020891906113a8565b6104d3565b60405161021a9190611403565b60405180910390f35b61022b61050a565b604051610238919061142d565b60405180910390f35b61025b600480360381019061025691906114d2565b610510565b005b610277600480360381019061027291906114ff565b610672565b604051610284919061142d565b60405180910390f35b6102a760048036038101906102a291906113a8565b6106ba565b6040516102b592919061152c565b60405180910390f35b6102c66106eb565b6040516102d391906112ed565b60405180910390f35b6102f660048036038101906102f191906113a8565b61077d565b6040516103039190611403565b60405180910390f35b610326600480360381019061032191906113a8565b6107f4565b6040516103339190611403565b60405180910390f35b610356600480360381019061035191906114d2565b610817565b005b610372600480360381019061036d9190611555565b61094e565b60405161037f919061142d565b60405180910390f35b6103906109d5565b60405161039d919061142d565b60405180910390f35b6103c060048036038101906103bb91906113a8565b6109db565b6040516103cd919061142d565b60405180910390f35b6060600380546103e5906115c4565b80601f0160208091040260200160405190810160405280929190818152602001828054610411906115c4565b801561045e5780601f106104335761010080835404028352916020019161045e565b820191906000526020600020905b81548152906001019060200180831161044157829003601f168201915b5050505050905090565b600080610473610a39565b9050610480818585610a41565b600191505092915050565b6000600254905090565b6000806104a0610a39565b90506104ad858285610c0a565b6104b8858585610c96565b60019150509392505050565b60006008905090565b60075481565b6000806104de610a39565b90506104ff8185856104f0858961094e565b6104fa9190611624565b610a41565b600191505092915050565b60055481565b8061051a33610672565b101561052557600080fd5b6402540be400811161053657600080fd5b6000600860003373ffffffffffffffffffffffffffffffffffffffff1673ffffffffffffffffffffffffffffffffffffffff1681526020019081526020016000206000438152602001908152602001600020600001541461059657600080fd5b6105a03382610f15565b80600560008282546105b29190611624565b92505081905550604051806040016040528082815260200143815250600860003373ffffffffffffffffffffffffffffffffffffffff1673ffffffffffffffffffffffffffffffffffffffff1681526020019081526020016000206000438152602001908152602001600020600082015181600001556020820151816001015590505060c8600560075461064691906116a9565b606460055461065591906116da565b61065f9190611624565b61066991906116a9565b60068190555050565b60008060008373ffffffffffffffffffffffffffffffffffffffff1673ffffffffffffffffffffffffffffffffffffffff168152602001908152602001600020549050919050565b6008602052816000526040600020602052806000526040600020600091509150508060000154908060010154905082565b6060600480546106fa906115c4565b80601f0160208091040260200160405190810160405280929190818152602001828054610726906115c4565b80156107735780601f1061074857610100808354040283529160200191610773565b820191906000526020600020905b81548152906001019060200180831161075657829003601f168201915b5050505050905090565b600080610788610a39565b90506000610796828661094e565b9050838110156107db576040517f08c379a00000000000000000000000000000000000000000000000000000000081526004016107d2906117a6565b60405180910390fd5b6107e88286868403610a41565b60019250505092915050565b6000806107ff610a39565b905061080c818585610c96565b600191505092915050565b6000600860003373ffffffffffffffffffffffffffffffffffffffff1673ffffffffffffffffffffffffffffffffffffffff16815260200190815260200160002060008381526020019081526020016000206000015490506000824361087d91906117c6565b90506000821161088c57600080fd5b82431161089857600080fd5b81600560008282546108aa91906117c6565b925050819055506305f5e100816108c191906116da565b6006546108ce91906116a9565b826108d991906116a9565b826108e49190611624565b91506108f033836110eb565b6000600860003373ffffffffffffffffffffffffffffffffffffffff1673ffffffffffffffffffffffffffffffffffffffff168152602001908152602001600020600085815260200190815260200160002060000181905550505050565b6000600160008473ffffffffffffffffffffffffffffffffffffffff1673ffffffffffffffffffffffffffffffffffffffff16815260200190815260200160002060008373ffffffffffffffffffffffffffffffffffffffff1673ffffffffffffffffffffffffffffffffffffffff16815260200190815260200160002054905092915050565b60065481565b6000600860008473ffffffffffffffffffffffffffffffffffffffff1673ffffffffffffffffffffffffffffffffffffffff168152602001908152602001600020600083815260200190815260200160002060000154905092915050565b600033905090565b600073ffffffffffffffffffffffffffffffffffffffff168373ffffffffffffffffffffffffffffffffffffffff1603610ab0576040517f08c379a0000000000000000000000000000000000000000000000000000000008152600401610aa79061186c565b60405180910390fd5b600073ffffffffffffffffffffffffffffffffffffffff168273ffffffffffffffffffffffffffffffffffffffff1603610b1f576040517f08c379a0000000000000000000000000000000000000000000000000000000008152600401610b16906118fe565b60405180910390fd5b80600160008573ffffffffffffffffffffffffffffffffffffffff1673ffffffffffffffffffffffffffffffffffffffff16815260200190815260200160002060008473ffffffffffffffffffffffffffffffffffffffff1673ffffffffffffffffffffffffffffffffffffffff168152602001908152602001600020819055508173ffffffffffffffffffffffffffffffffffffffff168373ffffffffffffffffffffffffffffffffffffffff167f8c5be1e5ebec7d5bd14f71427d1e84f3dd0314c0f7b2291e5b200ac8c7c3b92583604051610bfd919061142d565b60405180910390a3505050565b6000610c16848461094e565b90507fffffffffffffffffffffffffffffffffffffffffffffffffffffffffffffffff8114610c905781811015610c82576040517f08c379a0000000000000000000000000000000000000000000000000000000008152600401610c799061196a565b60405180910390fd5b610c8f8484848403610a41565b5b50505050565b600073ffffffffffffffffffffffffffffffffffffffff168373ffffffffffffffffffffffffffffffffffffffff1603610d05576040517f08c379a0000000000000000000000000000000000000000000000000000000008152600401610cfc906119fc565b60405180910390fd5b600073ffffffffffffffffffffffffffffffffffffffff168273ffffffffffffffffffffffffffffffffffffffff1603610d74576040517f08c379a0000000000000000000000000000000000000000000000000000000008152600401610d6b90611a8e565b60405180910390fd5b610d7f83838361124a565b60008060008573ffffffffffffffffffffffffffffffffffffffff1673ffffffffffffffffffffffffffffffffffffffff16815260200190815260200160002054905081811015610e05576040517f08c379a0000000000000000000000000000000000000000000000000000000008152600401610dfc90611b20565b60405180910390fd5b8181036000808673ffffffffffffffffffffffffffffffffffffffff1673ffffffffffffffffffffffffffffffffffffffff16815260200190815260200160002081905550816000808573ffffffffffffffffffffffffffffffffffffffff1673ffffffffffffffffffffffffffffffffffffffff1681526020019081526020016000206000828254610e989190611624565b925050819055508273ffffffffffffffffffffffffffffffffffffffff168473ffffffffffffffffffffffffffffffffffffffff167fddf252ad1be2c89b69c2b068fc378daa952ba7f163c4a11628f55a4df523b3ef84604051610efc919061142d565b60405180910390a3610f0f84848461124f565b50505050565b600073ffffffffffffffffffffffffffffffffffffffff168273ffffffffffffffffffffffffffffffffffffffff1603610f84576040517f08c379a0000000000000000000000000000000000000000000000000000000008152600401610f7b90611bb2565b60405180910390fd5b610f908260008361124a565b60008060008473ffffffffffffffffffffffffffffffffffffffff1673ffffffffffffffffffffffffffffffffffffffff16815260200190815260200160002054905081811015611016576040517f08c379a000000000000000000000000000000000000000000000000000000000815260040161100d90611c44565b60405180910390fd5b8181036000808573ffffffffffffffffffffffffffffffffffffffff1673ffffffffffffffffffffffffffffffffffffffff16815260200190815260200160002081905550816002600082825461106d91906117c6565b92505081905550600073ffffffffffffffffffffffffffffffffffffffff168373ffffffffffffffffffffffffffffffffffffffff167fddf252ad1be2c89b69c2b068fc378daa952ba7f163c4a11628f55a4df523b3ef846040516110d2919061142d565b60405180910390a36110e68360008461124f565b505050565b600073ffffffffffffffffffffffffffffffffffffffff168273ffffffffffffffffffffffffffffffffffffffff160361115a576040517f08c379a000000000000000000000000000000000000000000000000000000000815260040161115190611cb0565b60405180910390fd5b6111666000838361124a565b80600260008282546111789190611624565b92505081905550806000808473ffffffffffffffffffffffffffffffffffffffff1673ffffffffffffffffffffffffffffffffffffffff16815260200190815260200160002060008282546111cd9190611624565b925050819055508173ffffffffffffffffffffffffffffffffffffffff16600073ffffffffffffffffffffffffffffffffffffffff167fddf252ad1be2c89b69c2b068fc378daa952ba7f163c4a11628f55a4df523b3ef83604051611232919061142d565b60405180910390a36112466000838361124f565b5050565b505050565b505050565b600081519050919050565b600082825260208201905092915050565b60005b8381101561128e578082015181840152602081019050611273565b8381111561129d576000848401525b50505050565b6000601f19601f8301169050919050565b60006112bf82611254565b6112c9818561125f565b93506112d9818560208601611270565b6112e2816112a3565b840191505092915050565b6000602082019050818103600083015261130781846112b4565b905092915050565b600080fd5b600073ffffffffffffffffffffffffffffffffffffffff82169050919050565b600061133f82611314565b9050919050565b61134f81611334565b811461135a57600080fd5b50565b60008135905061136c81611346565b92915050565b6000819050919050565b61138581611372565b811461139057600080fd5b50565b6000813590506113a28161137c565b92915050565b600080604083850312156113bf576113be61130f565b5b60006113cd8582860161135d565b92505060206113de85828601611393565b9150509250929050565b60008115159050919050565b6113fd816113e8565b82525050565b600060208201905061141860008301846113f4565b92915050565b61142781611372565b82525050565b6000602082019050611442600083018461141e565b92915050565b6000806000606084860312156114615761146061130f565b5b600061146f8682870161135d565b93505060206114808682870161135d565b925050604061149186828701611393565b9150509250925092565b600060ff82169050919050565b6114b18161149b565b82525050565b60006020820190506114cc60008301846114a8565b92915050565b6000602082840312156114e8576114e761130f565b5b60006114f684828501611393565b91505092915050565b6000602082840312156115155761151461130f565b5b60006115238482850161135d565b91505092915050565b6000604082019050611541600083018561141e565b61154e602083018461141e565b9392505050565b6000806040838503121561156c5761156b61130f565b5b600061157a8582860161135d565b925050602061158b8582860161135d565b9150509250929050565b7f4e487b7100000000000000000000000000000000000000000000000000000000600052602260045260246000fd5b600060028204905060018216806115dc57607f821691505b6020821081036115ef576115ee611595565b5b50919050565b7f4e487b7100000000000000000000000000000000000000000000000000000000600052601160045260246000fd5b600061162f82611372565b915061163a83611372565b9250827fffffffffffffffffffffffffffffffffffffffffffffffffffffffffffffffff0382111561166f5761166e6115f5565b5b828201905092915050565b7f4e487b7100000000000000000000000000000000000000000000000000000000600052601260045260246000fd5b60006116b482611372565b91506116bf83611372565b9250826116cf576116ce61167a565b5b828204905092915050565b60006116e582611372565b91506116f083611372565b9250817fffffffffffffffffffffffffffffffffffffffffffffffffffffffffffffffff0483118215151615611729576117286115f5565b5b828202905092915050565b7f45524332303a2064656372656173656420616c6c6f77616e63652062656c6f7760008201527f207a65726f000000000000000000000000000000000000000000000000000000602082015250565b600061179060258361125f565b915061179b82611734565b604082019050919050565b600060208201905081810360008301526117bf81611783565b9050919050565b60006117d182611372565b91506117dc83611372565b9250828210156117ef576117ee6115f5565b5b828203905092915050565b7f45524332303a20617070726f76652066726f6d20746865207a65726f2061646460008201527f7265737300000000000000000000000000000000000000000000000000000000602082015250565b600061185660248361125f565b9150611861826117fa565b604082019050919050565b6000602082019050818103600083015261188581611849565b9050919050565b7f45524332303a20617070726f766520746f20746865207a65726f20616464726560008201527f7373000000000000000000000000000000000000000000000000000000000000602082015250565b60006118e860228361125f565b91506118f38261188c565b604082019050919050565b60006020820190508181036000830152611917816118db565b9050919050565b7f45524332303a20696e73756666696369656e7420616c6c6f77616e6365000000600082015250565b6000611954601d8361125f565b915061195f8261191e565b602082019050919050565b6000602082019050818103600083015261198381611947565b9050919050565b7f45524332303a207472616e736665722066726f6d20746865207a65726f20616460008201527f6472657373000000000000000000000000000000000000000000000000000000602082015250565b60006119e660258361125f565b91506119f18261198a565b604082019050919050565b60006020820190508181036000830152611a15816119d9565b9050919050565b7f45524332303a207472616e7366657220746f20746865207a65726f206164647260008201527f6573730000000000000000000000000000000000000000000000000000000000602082015250565b6000611a7860238361125f565b9150611a8382611a1c565b604082019050919050565b60006020820190508181036000830152611aa781611a6b565b9050919050565b7f45524332303a207472616e7366657220616d6f756e742065786365656473206260008201527f616c616e63650000000000000000000000000000000000000000000000000000602082015250565b6000611b0a60268361125f565b9150611b1582611aae565b604082019050919050565b60006020820190508181036000830152611b3981611afd565b9050919050565b7f45524332303a206275726e2066726f6d20746865207a65726f2061646472657360008201527f7300000000000000000000000000000000000000000000000000000000000000602082015250565b6000611b9c60218361125f565b9150611ba782611b40565b604082019050919050565b60006020820190508181036000830152611bcb81611b8f565b9050919050565b7f45524332303a206275726e20616d6f756e7420657863656564732062616c616e60008201527f6365000000000000000000000000000000000000000000000000000000000000602082015250565b6000611c2e60228361125f565b9150611c3982611bd2565b604082019050919050565b60006020820190508181036000830152611c5d81611c21565b9050919050565b7f45524332303a206d696e7420746f20746865207a65726f206164647265737300600082015250565b6000611c9a601f8361125f565b9150611ca582611c64565b602082019050919050565b60006020820190508181036000830152611cc981611c8d565b905091905056fea264697066735822122029a7a9b925650f0c492a21e81f6272a85adfd0ca16c8ffa37fdee4e4c5fd370964736f6c634300080f0033",
  "immutableReferences": {},
  "source": "// contracts/AthleteToken.sol\n// SPDX-License-Identifier: MIT\npragma solidity ^0.8.0;\n\nimport \"@openzeppelin/contracts/token/ERC20/ERC20.sol\";\n\ncontract AthleteToken is ERC20 {\n\n    uint public tokenTotalStake;\n    uint public difficultyPerBlock;\n    uint public initialSupply = 100000000000000000;\n\n    mapping(address => mapping(uint => Stake)) public stakeSubscriptions;\n\n    struct Stake {\n        uint256 amount;\n        uint256 blockId;\n    }\n\n    constructor() ERC20(\"Athlete Token\", \"ATH\") {\n        _mint(msg.sender, initialSupply);\n    }\n\n    function decimals() public view virtual override returns (uint8) {\n        return 8;\n    }\n\n    function subscribeStake(uint256 _amount) public {\n        require(balanceOf(msg.sender) >= _amount);\n        require(_amount > 10000000000);\n        require(stakeSubscriptions[msg.sender][block.number].amount == 0);\n        _burn(msg.sender, _amount);\n        tokenTotalStake += _amount;\n        stakeSubscriptions[msg.sender][block.number] = Stake(_amount, block.number);\n        difficultyPerBlock = ((tokenTotalStake * 100) + (initialSupply / 5)) / 200;\n    }\n\n    function unsubscribeStake(uint _blockNumber) public {\n        uint256 amountStake = stakeSubscriptions[msg.sender][_blockNumber].amount;\n        uint256 qtdBlocks = block.number - _blockNumber;\n        require(amountStake > 0);\n        require(block.number > _blockNumber);\n        tokenTotalStake -= amountStake;\n        amountStake += (amountStake / (difficultyPerBlock / (qtdBlocks * 100000000)));\n        _mint(msg.sender, amountStake);\n        stakeSubscriptions[msg.sender][_blockNumber].amount = 0;\n    }\n\n    function balanceStaked(address wallet, uint _blockNumber) public view returns (uint256) {\n        return stakeSubscriptions[wallet][_blockNumber].amount;\n    }\n\n}",
  "sourcePath": "/home/aamorim/Projects/athlete-dapp/contracts/AthleteToken.sol",
  "compiler": {
    "name": "solc",
    "version": "0.8.15+commit.e14f2714.Emscripten.clang"
  },
  "schemaVersion": "3.4.8",
  "updatedAt": "2022-07-08T20:55:41.024Z",
  "networkType": "ethereum",
  "devdoc": {
    "kind": "dev",
    "methods": {
      "allowance(address,address)": {
        "details": "See {IERC20-allowance}."
      },
      "approve(address,uint256)": {
        "details": "See {IERC20-approve}. NOTE: If `amount` is the maximum `uint256`, the allowance is not updated on `transferFrom`. This is semantically equivalent to an infinite approval. Requirements: - `spender` cannot be the zero address."
      },
      "balanceOf(address)": {
        "details": "See {IERC20-balanceOf}."
      },
      "decimals()": {
        "details": "Returns the number of decimals used to get its user representation. For example, if `decimals` equals `2`, a balance of `505` tokens should be displayed to a user as `5.05` (`505 / 10 ** 2`). Tokens usually opt for a value of 18, imitating the relationship between Ether and Wei. This is the value {ERC20} uses, unless this function is overridden; NOTE: This information is only used for _display_ purposes: it in no way affects any of the arithmetic of the contract, including {IERC20-balanceOf} and {IERC20-transfer}."
      },
      "decreaseAllowance(address,uint256)": {
        "details": "Atomically decreases the allowance granted to `spender` by the caller. This is an alternative to {approve} that can be used as a mitigation for problems described in {IERC20-approve}. Emits an {Approval} event indicating the updated allowance. Requirements: - `spender` cannot be the zero address. - `spender` must have allowance for the caller of at least `subtractedValue`."
      },
      "increaseAllowance(address,uint256)": {
        "details": "Atomically increases the allowance granted to `spender` by the caller. This is an alternative to {approve} that can be used as a mitigation for problems described in {IERC20-approve}. Emits an {Approval} event indicating the updated allowance. Requirements: - `spender` cannot be the zero address."
      },
      "name()": {
        "details": "Returns the name of the token."
      },
      "symbol()": {
        "details": "Returns the symbol of the token, usually a shorter version of the name."
      },
      "totalSupply()": {
        "details": "See {IERC20-totalSupply}."
      },
      "transfer(address,uint256)": {
        "details": "See {IERC20-transfer}. Requirements: - `to` cannot be the zero address. - the caller must have a balance of at least `amount`."
      },
      "transferFrom(address,address,uint256)": {
        "details": "See {IERC20-transferFrom}. Emits an {Approval} event indicating the updated allowance. This is not required by the EIP. See the note at the beginning of {ERC20}. NOTE: Does not update the allowance if the current allowance is the maximum `uint256`. Requirements: - `from` and `to` cannot be the zero address. - `from` must have a balance of at least `amount`. - the caller must have allowance for ``from``'s tokens of at least `amount`."
      }
    },
    "version": 1
  },
  "userdoc": {
    "kind": "user",
    "methods": {},
    "version": 1
  }
}